{
  "contractName": "catalanExchange",
  "abi": [
    {
      "constant": true,
      "inputs": [],
      "name": "last_completed_migration",
      "outputs": [
        {
          "name": "",
          "type": "uint256"
        }
      ],
      "payable": false,
      "stateMutability": "view",
      "type": "function"
    },
    {
      "constant": true,
      "inputs": [],
      "name": "uniswapFactory",
      "outputs": [
        {
          "name": "",
          "type": "address"
        }
      ],
      "payable": false,
      "stateMutability": "view",
      "type": "function"
    },
    {
      "constant": true,
      "inputs": [],
      "name": "owner",
      "outputs": [
        {
          "name": "",
          "type": "address"
        }
      ],
      "payable": false,
      "stateMutability": "view",
      "type": "function"
    },
    {
      "constant": true,
      "inputs": [],
      "name": "kyber",
      "outputs": [
        {
          "name": "",
          "type": "address"
        }
      ],
      "payable": false,
      "stateMutability": "view",
      "type": "function"
    },
    {
      "constant": false,
      "inputs": [
        {
          "name": "newOwner",
          "type": "address"
        }
      ],
      "name": "changeOwner",
      "outputs": [],
      "payable": false,
      "stateMutability": "nonpayable",
      "type": "function"
    },
    {
      "constant": true,
      "inputs": [],
      "name": "unity",
      "outputs": [
        {
          "name": "",
          "type": "uint256"
        }
      ],
      "payable": false,
      "stateMutability": "view",
      "type": "function"
    },
    {
      "constant": false,
      "inputs": [
        {
          "name": "completed",
          "type": "uint256"
        }
      ],
      "name": "setCompleted",
      "outputs": [],
      "payable": false,
      "stateMutability": "nonpayable",
      "type": "function"
    },
    {
      "inputs": [
        {
          "name": "_kncAddress",
          "type": "address"
        },
        {
          "name": "_ethAddress",
          "type": "address"
        },
        {
          "name": "_daiAddress",
          "type": "address"
        },
        {
          "name": "_manaAddress",
          "type": "address"
        },
        {
          "name": "UniswapFactoryAddress",
          "type": "address"
        },
        {
          "name": "KyberNetworkProxyAddress",
          "type": "address"
        }
      ],
      "payable": false,
      "stateMutability": "nonpayable",
      "type": "constructor"
    },
    {
      "payable": true,
      "stateMutability": "payable",
      "type": "fallback"
    },
    {
      "constant": true,
      "inputs": [
        {
          "name": "_amount",
          "type": "uint256"
        }
      ],
      "name": "priceDaiToEth1",
      "outputs": [
        {
          "name": "_daiToEth",
          "type": "uint256"
        },
        {
          "name": "_ethToDai",
          "type": "uint256"
        }
      ],
      "payable": false,
      "stateMutability": "view",
      "type": "function"
    },
    {
      "constant": true,
      "inputs": [
        {
          "name": "_amount",
          "type": "uint256"
        }
      ],
      "name": "priceDaiToEth2",
      "outputs": [
        {
          "name": "daiToEthKyber",
          "type": "uint256"
        },
        {
          "name": "ethToDaiKyber",
          "type": "uint256"
        }
      ],
      "payable": false,
      "stateMutability": "view",
      "type": "function"
    },
    {
      "constant": true,
      "inputs": [
        {
          "name": "_amount",
          "type": "uint256"
        }
      ],
      "name": "priceKncToEth2",
      "outputs": [
        {
          "name": "knkToEthKyber",
          "type": "uint256"
        },
        {
          "name": "ethToKnkKyber",
          "type": "uint256"
        }
      ],
      "payable": false,
      "stateMutability": "view",
      "type": "function"
    },
    {
      "constant": true,
      "inputs": [
        {
          "name": "_amount",
          "type": "uint256"
        }
      ],
      "name": "priceDaiToKnc2",
      "outputs": [
        {
          "name": "daiToKnkKyber",
          "type": "uint256"
        },
        {
          "name": "KnkToDaiKyber",
          "type": "uint256"
        }
      ],
      "payable": false,
      "stateMutability": "view",
      "type": "function"
    },
    {
      "constant": true,
      "inputs": [
        {
          "name": "_amount",
          "type": "uint256"
        }
      ],
      "name": "priceManaToEth2",
      "outputs": [
        {
          "name": "manaToEth",
          "type": "uint256"
        },
        {
          "name": "ethToMana",
          "type": "uint256"
        }
      ],
      "payable": false,
      "stateMutability": "view",
      "type": "function"
    },
    {
      "constant": true,
      "inputs": [
        {
          "name": "_amount",
          "type": "uint256"
        }
      ],
      "name": "priceManaToDai2",
      "outputs": [
        {
          "name": "manaToDai",
          "type": "uint256"
        },
        {
          "name": "daiToMana",
          "type": "uint256"
        }
      ],
      "payable": false,
      "stateMutability": "view",
      "type": "function"
    },
    {
      "constant": true,
      "inputs": [
        {
          "name": "_amount",
          "type": "uint256"
        }
      ],
      "name": "priceManaToKnc2",
      "outputs": [
        {
          "name": "manaToKnk",
          "type": "uint256"
        },
        {
          "name": "knkToMana",
          "type": "uint256"
        }
      ],
      "payable": false,
      "stateMutability": "view",
      "type": "function"
    },
    {
      "constant": false,
      "inputs": [
        {
          "name": "_newOwnerAddres",
          "type": "address"
        }
      ],
      "name": "newOwner",
      "outputs": [],
      "payable": false,
      "stateMutability": "nonpayable",
      "type": "function"
    },
    {
      "constant": false,
      "inputs": [
        {
          "name": "_deadline",
          "type": "uint256"
        },
        {
          "name": "_unity",
          "type": "uint256"
        }
      ],
      "name": "changeParameters",
      "outputs": [],
      "payable": false,
      "stateMutability": "nonpayable",
      "type": "function"
    },
    {
      "constant": true,
      "inputs": [],
      "name": "getParameters",
      "outputs": [
        {
          "name": "_deadline",
          "type": "uint256"
        },
        {
          "name": "_unity",
          "type": "uint256"
        }
      ],
      "payable": false,
      "stateMutability": "view",
      "type": "function"
    }
  ],
  "bytecode": "0x60806040526101a4600555670de0b6b3a764000060065534801561002257600080fd5b5060405160c080612343833981018060405260c081101561004257600080fd5b81019080805190602001909291908051906020019092919080519060200190929190805190602001909291908051906020019092919080519060200190929190505050336000806101000a81548173ffffffffffffffffffffffffffffffffffffffff021916908373ffffffffffffffffffffffffffffffffffffffff16021790555084600760006101000a81548173ffffffffffffffffffffffffffffffffffffffff021916908373ffffffffffffffffffffffffffffffffffffffff16021790555083600860006101000a81548173ffffffffffffffffffffffffffffffffffffffff021916908373ffffffffffffffffffffffffffffffffffffffff16021790555085600960006101000a81548173ffffffffffffffffffffffffffffffffffffffff021916908373ffffffffffffffffffffffffffffffffffffffff16021790555082600a60006101000a81548173ffffffffffffffffffffffffffffffffffffffff021916908373ffffffffffffffffffffffffffffffffffffffff16021790555081600260006101000a81548173ffffffffffffffffffffffffffffffffffffffff021916908373ffffffffffffffffffffffffffffffffffffffff160217905550600260009054906101000a900473ffffffffffffffffffffffffffffffffffffffff1673ffffffffffffffffffffffffffffffffffffffff166306f2bf62856040518263ffffffff167c0100000000000000000000000000000000000000000000000000000000028152600401808273ffffffffffffffffffffffffffffffffffffffff1673ffffffffffffffffffffffffffffffffffffffff16815260200191505060206040518083038186803b1580156102c557600080fd5b505afa1580156102d9573d6000803e3d6000fd5b505050506040513d60208110156102ef57600080fd5b8101908080519060200190929190505050600460006101000a81548173ffffffffffffffffffffffffffffffffffffffff021916908373ffffffffffffffffffffffffffffffffffffffff16021790555080600360006101000a81548173ffffffffffffffffffffffffffffffffffffffff021916908373ffffffffffffffffffffffffffffffffffffffff160217905550505050505050611fad806103966000396000f3fe6080604052600436106100f1576000357c0100000000000000000000000000000000000000000000000000000000900463ffffffff168063445df0ac146100f35780635befe4f41461011e5780636114988414610174578063728dda4a146101ca57806385952454146102205780638bdb2afa146102715780638da5cb5b146102c8578063a2d10ba51461031f578063a5ea11da14610376578063a6f9dae1146103a8578063b578d0ee146103f9578063bc5b8d491461044f578063c58b15af146104a5578063c94e949d146104ea578063d311e25414610540578063fdacd5761461056b578063ff069a98146105a6575b005b3480156100ff57600080fd5b506101086105fc565b6040518082815260200191505060405180910390f35b34801561012a57600080fd5b506101576004803603602081101561014157600080fd5b8101908080359060200190929190505050610602565b604051808381526020018281526020019250505060405180910390f35b34801561018057600080fd5b506101ad6004803603602081101561019757600080fd5b8101908080359060200190929190505050610970565b604051808381526020018281526020019250505060405180910390f35b3480156101d657600080fd5b50610203600480360360208110156101ed57600080fd5b8101908080359060200190929190505050610cde565b604051808381526020018281526020019250505060405180910390f35b34801561022c57600080fd5b5061026f6004803603602081101561024357600080fd5b81019080803573ffffffffffffffffffffffffffffffffffffffff16906020019092919050505061104c565b005b34801561027d57600080fd5b5061028661111c565b604051808273ffffffffffffffffffffffffffffffffffffffff1673ffffffffffffffffffffffffffffffffffffffff16815260200191505060405180910390f35b3480156102d457600080fd5b506102dd611142565b604051808273ffffffffffffffffffffffffffffffffffffffff1673ffffffffffffffffffffffffffffffffffffffff16815260200191505060405180910390f35b34801561032b57600080fd5b50610334611167565b604051808273ffffffffffffffffffffffffffffffffffffffff1673ffffffffffffffffffffffffffffffffffffffff16815260200191505060405180910390f35b34801561038257600080fd5b5061038b61118d565b604051808381526020018281526020019250505060405180910390f35b3480156103b457600080fd5b506103f7600480360360208110156103cb57600080fd5b81019080803573ffffffffffffffffffffffffffffffffffffffff16906020019092919050505061119e565b005b34801561040557600080fd5b506104326004803603602081101561041c57600080fd5b81019080803590602001909291905050506112a5565b604051808381526020018281526020019250505060405180910390f35b34801561045b57600080fd5b506104886004803603602081101561047257600080fd5b8101908080359060200190929190505050611613565b604051808381526020018281526020019250505060405180910390f35b3480156104b157600080fd5b506104e8600480360360408110156104c857600080fd5b8101908080359060200190929190803590602001909291905050506117bf565b005b3480156104f657600080fd5b506105236004803603602081101561050d57600080fd5b8101908080359060200190929190505050611895565b604051808381526020018281526020019250505060405180910390f35b34801561054c57600080fd5b50610555611c03565b6040518082815260200191505060405180910390f35b34801561057757600080fd5b506105a46004803603602081101561058e57600080fd5b8101908080359060200190929190505050611c09565b005b3480156105b257600080fd5b506105df600480360360208110156105c957600080fd5b8101908080359060200190929190505050611c13565b604051808381526020018281526020019250505060405180910390f35b60015481565b600080600080600360009054906101000a900473ffffffffffffffffffffffffffffffffffffffff1673ffffffffffffffffffffffffffffffffffffffff1663809a9e55600a60009054906101000a900473ffffffffffffffffffffffffffffffffffffffff16600760009054906101000a900473ffffffffffffffffffffffffffffffffffffffff166006546040518463ffffffff167c0100000000000000000000000000000000000000000000000000000000028152600401808473ffffffffffffffffffffffffffffffffffffffff1673ffffffffffffffffffffffffffffffffffffffff1681526020018373ffffffffffffffffffffffffffffffffffffffff1673ffffffffffffffffffffffffffffffffffffffff1681526020018281526020019350505050604080518083038186803b15801561074457600080fd5b505afa158015610758573d6000803e3d6000fd5b505050506040513d604081101561076e57600080fd5b810190808051906020019092919080519060200190929190505050508092505060065485830281151561079d57fe5b06858302039050600654818115156107b157fe5b0491506000600360009054906101000a900473ffffffffffffffffffffffffffffffffffffffff1673ffffffffffffffffffffffffffffffffffffffff1663809a9e55600760009054906101000a900473ffffffffffffffffffffffffffffffffffffffff16600a60009054906101000a900473ffffffffffffffffffffffffffffffffffffffff166006546040518463ffffffff167c0100000000000000000000000000000000000000000000000000000000028152600401808473ffffffffffffffffffffffffffffffffffffffff1673ffffffffffffffffffffffffffffffffffffffff1681526020018373ffffffffffffffffffffffffffffffffffffffff1673ffffffffffffffffffffffffffffffffffffffff1681526020018281526020019350505050604080518083038186803b1580156108f257600080fd5b505afa158015610906573d6000803e3d6000fd5b505050506040513d604081101561091c57600080fd5b810190808051906020019092919080519060200190929190505050508091505060065486820281151561094b57fe5b068682020391506006548281151561095f57fe5b049050828194509450505050915091565b600080600080600360009054906101000a900473ffffffffffffffffffffffffffffffffffffffff1673ffffffffffffffffffffffffffffffffffffffff1663809a9e55600860009054906101000a900473ffffffffffffffffffffffffffffffffffffffff16600760009054906101000a900473ffffffffffffffffffffffffffffffffffffffff166006546040518463ffffffff167c0100000000000000000000000000000000000000000000000000000000028152600401808473ffffffffffffffffffffffffffffffffffffffff1673ffffffffffffffffffffffffffffffffffffffff1681526020018373ffffffffffffffffffffffffffffffffffffffff1673ffffffffffffffffffffffffffffffffffffffff1681526020018281526020019350505050604080518083038186803b158015610ab257600080fd5b505afa158015610ac6573d6000803e3d6000fd5b505050506040513d6040811015610adc57600080fd5b8101908080519060200190929190805190602001909291905050505080925050600654858302811515610b0b57fe5b0685830203905060065481811515610b1f57fe5b0491506000600360009054906101000a900473ffffffffffffffffffffffffffffffffffffffff1673ffffffffffffffffffffffffffffffffffffffff1663809a9e55600760009054906101000a900473ffffffffffffffffffffffffffffffffffffffff16600860009054906101000a900473ffffffffffffffffffffffffffffffffffffffff166006546040518463ffffffff167c0100000000000000000000000000000000000000000000000000000000028152600401808473ffffffffffffffffffffffffffffffffffffffff1673ffffffffffffffffffffffffffffffffffffffff1681526020018373ffffffffffffffffffffffffffffffffffffffff1673ffffffffffffffffffffffffffffffffffffffff1681526020018281526020019350505050604080518083038186803b158015610c6057600080fd5b505afa158015610c74573d6000803e3d6000fd5b505050506040513d6040811015610c8a57600080fd5b8101908080519060200190929190805190602001909291905050505080915050600654868202811515610cb957fe5b0686820203915060065482811515610ccd57fe5b049050828194509450505050915091565b600080600080600360009054906101000a900473ffffffffffffffffffffffffffffffffffffffff1673ffffffffffffffffffffffffffffffffffffffff1663809a9e55600a60009054906101000a900473ffffffffffffffffffffffffffffffffffffffff16600860009054906101000a900473ffffffffffffffffffffffffffffffffffffffff166006546040518463ffffffff167c0100000000000000000000000000000000000000000000000000000000028152600401808473ffffffffffffffffffffffffffffffffffffffff1673ffffffffffffffffffffffffffffffffffffffff1681526020018373ffffffffffffffffffffffffffffffffffffffff1673ffffffffffffffffffffffffffffffffffffffff1681526020018281526020019350505050604080518083038186803b158015610e2057600080fd5b505afa158015610e34573d6000803e3d6000fd5b505050506040513d6040811015610e4a57600080fd5b8101908080519060200190929190805190602001909291905050505080925050600654858302811515610e7957fe5b0685830203905060065481811515610e8d57fe5b0491506000600360009054906101000a900473ffffffffffffffffffffffffffffffffffffffff1673ffffffffffffffffffffffffffffffffffffffff1663809a9e55600860009054906101000a900473ffffffffffffffffffffffffffffffffffffffff16600a60009054906101000a900473ffffffffffffffffffffffffffffffffffffffff166006546040518463ffffffff167c0100000000000000000000000000000000000000000000000000000000028152600401808473ffffffffffffffffffffffffffffffffffffffff1673ffffffffffffffffffffffffffffffffffffffff1681526020018373ffffffffffffffffffffffffffffffffffffffff1673ffffffffffffffffffffffffffffffffffffffff1681526020018281526020019350505050604080518083038186803b158015610fce57600080fd5b505afa158015610fe2573d6000803e3d6000fd5b505050506040513d6040811015610ff857600080fd5b810190808051906020019092919080519060200190929190505050508091505060065486820281151561102757fe5b068682020391506006548281151561103b57fe5b049050828194509450505050915091565b6000809054906101000a900473ffffffffffffffffffffffffffffffffffffffff1673ffffffffffffffffffffffffffffffffffffffff163373ffffffffffffffffffffffffffffffffffffffff16141515611110576040517f08c379a00000000000000000000000000000000000000000000000000000000081526004018080602001828103825260098152602001807f4e6f74204f776e6572000000000000000000000000000000000000000000000081525060200191505060405180910390fd5b6111198161119e565b50565b600260009054906101000a900473ffffffffffffffffffffffffffffffffffffffff1681565b6000809054906101000a900473ffffffffffffffffffffffffffffffffffffffff1681565b600360009054906101000a900473ffffffffffffffffffffffffffffffffffffffff1681565b600080600554600654915091509091565b6000809054906101000a900473ffffffffffffffffffffffffffffffffffffffff1673ffffffffffffffffffffffffffffffffffffffff163373ffffffffffffffffffffffffffffffffffffffff16141515611262576040517f08c379a00000000000000000000000000000000000000000000000000000000081526004018080602001828103825260098152602001807f4e6f74204f776e6572000000000000000000000000000000000000000000000081525060200191505060405180910390fd5b806000806101000a81548173ffffffffffffffffffffffffffffffffffffffff021916908373ffffffffffffffffffffffffffffffffffffffff16021790555050565b600080600080600360009054906101000a900473ffffffffffffffffffffffffffffffffffffffff1673ffffffffffffffffffffffffffffffffffffffff1663809a9e55600860009054906101000a900473ffffffffffffffffffffffffffffffffffffffff16600960009054906101000a900473ffffffffffffffffffffffffffffffffffffffff166006546040518463ffffffff167c0100000000000000000000000000000000000000000000000000000000028152600401808473ffffffffffffffffffffffffffffffffffffffff1673ffffffffffffffffffffffffffffffffffffffff1681526020018373ffffffffffffffffffffffffffffffffffffffff1673ffffffffffffffffffffffffffffffffffffffff1681526020018281526020019350505050604080518083038186803b1580156113e757600080fd5b505afa1580156113fb573d6000803e3d6000fd5b505050506040513d604081101561141157600080fd5b810190808051906020019092919080519060200190929190505050508092505060065485830281151561144057fe5b068583020390506006548181151561145457fe5b0491506000600360009054906101000a900473ffffffffffffffffffffffffffffffffffffffff1673ffffffffffffffffffffffffffffffffffffffff1663809a9e55600960009054906101000a900473ffffffffffffffffffffffffffffffffffffffff16600860009054906101000a900473ffffffffffffffffffffffffffffffffffffffff166006546040518463ffffffff167c0100000000000000000000000000000000000000000000000000000000028152600401808473ffffffffffffffffffffffffffffffffffffffff1673ffffffffffffffffffffffffffffffffffffffff1681526020018373ffffffffffffffffffffffffffffffffffffffff1673ffffffffffffffffffffffffffffffffffffffff1681526020018281526020019350505050604080518083038186803b15801561159557600080fd5b505afa1580156115a9573d6000803e3d6000fd5b505050506040513d60408110156115bf57600080fd5b81019080805190602001909291908051906020019092919050505050809150506006548682028115156115ee57fe5b068682020391506006548281151561160257fe5b049050828194509450505050915091565b6000806000600460009054906101000a900473ffffffffffffffffffffffffffffffffffffffff1673ffffffffffffffffffffffffffffffffffffffff166395b68fe7856040518263ffffffff167c01000000000000000000000000000000000000000000000000000000000281526004018082815260200191505060206040518083038186803b1580156116a757600080fd5b505afa1580156116bb573d6000803e3d6000fd5b505050506040513d60208110156116d157600080fd5b810190808051906020019092919050505090506000600460009054906101000a900473ffffffffffffffffffffffffffffffffffffffff1673ffffffffffffffffffffffffffffffffffffffff1663cd7724c3866040518263ffffffff167c01000000000000000000000000000000000000000000000000000000000281526004018082815260200191505060206040518083038186803b15801561177557600080fd5b505afa158015611789573d6000803e3d6000fd5b505050506040513d602081101561179f57600080fd5b810190808051906020019092919050505090508181935093505050915091565b6000809054906101000a900473ffffffffffffffffffffffffffffffffffffffff1673ffffffffffffffffffffffffffffffffffffffff163373ffffffffffffffffffffffffffffffffffffffff16141515611883576040517f08c379a00000000000000000000000000000000000000000000000000000000081526004018080602001828103825260098152602001807f4e6f74204f776e6572000000000000000000000000000000000000000000000081525060200191505060405180910390fd5b81600581905550806006819055505050565b600080600080600360009054906101000a900473ffffffffffffffffffffffffffffffffffffffff1673ffffffffffffffffffffffffffffffffffffffff1663809a9e55600a60009054906101000a900473ffffffffffffffffffffffffffffffffffffffff16600960009054906101000a900473ffffffffffffffffffffffffffffffffffffffff166006546040518463ffffffff167c0100000000000000000000000000000000000000000000000000000000028152600401808473ffffffffffffffffffffffffffffffffffffffff1673ffffffffffffffffffffffffffffffffffffffff1681526020018373ffffffffffffffffffffffffffffffffffffffff1673ffffffffffffffffffffffffffffffffffffffff1681526020018281526020019350505050604080518083038186803b1580156119d757600080fd5b505afa1580156119eb573d6000803e3d6000fd5b505050506040513d6040811015611a0157600080fd5b8101908080519060200190929190805190602001909291905050505080925050600654858302811515611a3057fe5b0685830203905060065481811515611a4457fe5b0491506000600360009054906101000a900473ffffffffffffffffffffffffffffffffffffffff1673ffffffffffffffffffffffffffffffffffffffff1663809a9e55600960009054906101000a900473ffffffffffffffffffffffffffffffffffffffff16600a60009054906101000a900473ffffffffffffffffffffffffffffffffffffffff166006546040518463ffffffff167c0100000000000000000000000000000000000000000000000000000000028152600401808473ffffffffffffffffffffffffffffffffffffffff1673ffffffffffffffffffffffffffffffffffffffff1681526020018373ffffffffffffffffffffffffffffffffffffffff1673ffffffffffffffffffffffffffffffffffffffff1681526020018281526020019350505050604080518083038186803b158015611b8557600080fd5b505afa158015611b99573d6000803e3d6000fd5b505050506040513d6040811015611baf57600080fd5b8101908080519060200190929190805190602001909291905050505080915050600654868202811515611bde57fe5b0686820203915060065482811515611bf257fe5b049050828194509450505050915091565b60065481565b8060018190555050565b600080600080600360009054906101000a900473ffffffffffffffffffffffffffffffffffffffff1673ffffffffffffffffffffffffffffffffffffffff1663809a9e55600960009054906101000a900473ffffffffffffffffffffffffffffffffffffffff16600760009054906101000a900473ffffffffffffffffffffffffffffffffffffffff166006546040518463ffffffff167c0100000000000000000000000000000000000000000000000000000000028152600401808473ffffffffffffffffffffffffffffffffffffffff1673ffffffffffffffffffffffffffffffffffffffff1681526020018373ffffffffffffffffffffffffffffffffffffffff1673ffffffffffffffffffffffffffffffffffffffff1681526020018281526020019350505050604080518083038186803b158015611d5557600080fd5b505afa158015611d69573d6000803e3d6000fd5b505050506040513d6040811015611d7f57600080fd5b8101908080519060200190929190805190602001909291905050505080925050600654858302811515611dae57fe5b0685830203905060065481811515611dc257fe5b0491506000600360009054906101000a900473ffffffffffffffffffffffffffffffffffffffff1673ffffffffffffffffffffffffffffffffffffffff1663809a9e55600760009054906101000a900473ffffffffffffffffffffffffffffffffffffffff16600960009054906101000a900473ffffffffffffffffffffffffffffffffffffffff166006546040518463ffffffff167c0100000000000000000000000000000000000000000000000000000000028152600401808473ffffffffffffffffffffffffffffffffffffffff1673ffffffffffffffffffffffffffffffffffffffff1681526020018373ffffffffffffffffffffffffffffffffffffffff1673ffffffffffffffffffffffffffffffffffffffff1681526020018281526020019350505050604080518083038186803b158015611f0357600080fd5b505afa158015611f17573d6000803e3d6000fd5b505050506040513d6040811015611f2d57600080fd5b8101908080519060200190929190805190602001909291905050505080915050600654868202811515611f5c57fe5b0686820203915060065482811515611f7057fe5b04905082819450945050505091509156fea165627a7a72305820f249ad8d73877db018864020032493a426d417a87b70fb9285743ae2c048a04a0029",
  "source": "pragma solidity ^0.5.0;\r\n\r\nimport \"./Migrations.sol\";\r\nimport \"@openzeppelin/contracts/token/ERC20/IERC20.sol\";\r\nimport \"@studydefi/money-legos/kyber/contracts/KyberNetworkProxy.sol\";\r\nimport \"@studydefi/money-legos/uniswap/contracts/IUniswapFactory.sol\";\r\nimport \"@studydefi/money-legos/uniswap/contracts/IUniswapExchange.sol\";\r\n\r\n\r\ncontract catalanExchange is Migrations{\r\n \r\n\tIUniswapFactory public uniswapFactory;\r\n\tKyberNetworkProxy public kyber;\r\n\tIUniswapExchange uniswapInterface1; //DAI\r\n\r\n\tuint256 deadline = 420;\r\n\tuint256 public unity = 1000000000000000000;\r\n\r\n\r\n\r\n\r\n\tIERC20 eth;\r\n\tIERC20 dai;\r\n\tIERC20 knc;\r\n\tIERC20 mana;\r\n\t\r\n\tconstructor(address _kncAddress, address _ethAddress, address _daiAddress, address _manaAddress, IUniswapFactory UniswapFactoryAddress, KyberNetworkProxy KyberNetworkProxyAddress) public{\r\n\t\teth = IERC20(_ethAddress);\r\n\t\tdai = IERC20(_daiAddress);\r\n\t\tknc = IERC20(_kncAddress);\r\n\t\tmana = IERC20(_manaAddress);\r\n\t\tuniswapFactory = IUniswapFactory(UniswapFactoryAddress);\r\n\t\tuniswapInterface1 = IUniswapExchange(uniswapFactory.getExchange(_daiAddress));\r\n\t\tkyber = KyberNetworkProxy(KyberNetworkProxyAddress);\r\n\t} \r\n\tfunction() external payable{}\r\n\r\n\t//Preus i conversions (Uniswap = 1 && Kyber == 2)\r\n\tfunction priceDaiToEth1(uint256 _amount) external view returns(uint256 _daiToEth, uint256 _ethToDai){\r\n\t\tuint256 x = uniswapInterface1.getTokenToEthInputPrice(_amount);\r\n\t\tuint256 y = uniswapInterface1.getEthToTokenInputPrice(_amount);\r\n\t\treturn (x, y);\t\r\n\t}\r\n\tfunction priceDaiToEth2(uint256 _amount) external view returns(uint256 daiToEthKyber, uint256 ethToDaiKyber){\r\n\t\tuint256 x;\r\n\t\tuint256 a;\r\n\t\t(x, ) = kyber.getExpectedRate(dai, eth, unity);\r\n\t\ta = (x * _amount) - ((x * _amount) % unity);\r\n\t\tx = a / unity;\r\n\t\tuint256 y; \r\n\t\t(y, ) = kyber.getExpectedRate(eth, dai, unity);\r\n\t\ta = (y * _amount) - ((y * _amount) % unity);\r\n\t\ty = a / unity;\r\n\t\treturn (x, y);\r\n\t}\r\n\tfunction priceKncToEth2(uint256 _amount) external view returns(uint256 knkToEthKyber, uint256 ethToKnkKyber){\r\n\t\tuint256 x;\r\n\t\tuint256 a;\r\n\t\t(x, ) = kyber.getExpectedRate(knc, eth, unity);\r\n\t\ta = (x * _amount) - ((x * _amount) % unity);\r\n\t\tx = a / unity;\r\n\t\tuint256 y; \r\n\t\t(y, ) = kyber.getExpectedRate(eth, knc, unity);\r\n\t\ta = (y * _amount) - ((y * _amount) % unity);\r\n\t\ty = a / unity;\r\n\t\treturn (x, y);\r\n\t}\r\n\tfunction priceDaiToKnc2(uint256 _amount) external view returns(uint256 daiToKnkKyber, uint256 KnkToDaiKyber) {\r\n\t\tuint256 x;\r\n\t\tuint256 a;\r\n\t\t(x, ) = kyber.getExpectedRate(dai, knc, unity);\r\n\t\ta = (x * _amount) - ((x * _amount) % unity);\r\n\t\tx = a / unity;\r\n\t\tuint256 y; \r\n\t\t(y, ) = kyber.getExpectedRate(knc, dai, unity);\r\n\t\ta = (y * _amount) - ((y * _amount) % unity);\r\n\t\ty = a / unity;\r\n\t\treturn (x, y);\r\n\t}\r\n\tfunction priceManaToEth2(uint256 _amount) external view returns(uint256 manaToEth, uint256 ethToMana){\r\n\t\tuint256 x;\r\n\t\tuint256 a;\r\n\t\t(x, ) = kyber.getExpectedRate(mana, eth, unity);\r\n\t\ta = (x * _amount) - ((x * _amount) % unity);\r\n\t\tx = a / unity;\r\n\t\tuint256 y; \r\n\t\t(y, ) = kyber.getExpectedRate(eth, mana, unity);\r\n\t\ta = (y * _amount) - ((y * _amount) % unity);\r\n\t\ty = a / unity;\r\n\t\treturn (x, y);\t\r\n\t}\r\n\tfunction priceManaToDai2(uint256 _amount) external view returns(uint256 manaToDai, uint256 daiToMana){\r\n\t\tuint256 x;\r\n\t\tuint256 a;\r\n\t\t(x, ) = kyber.getExpectedRate(mana, dai, unity);\r\n\t\ta = (x * _amount) - ((x * _amount) % unity);\r\n\t\tx = a / unity;\r\n\t\tuint256 y; \r\n\t\t(y, ) = kyber.getExpectedRate(dai, mana, unity);\r\n\t\ta = (y * _amount) - ((y * _amount) % unity);\r\n\t\ty = a / unity;\r\n\t\treturn (x, y);\t\r\n\t}\r\n\tfunction priceManaToKnc2(uint256 _amount) external view returns(uint256 manaToKnk, uint256 knkToMana) {\r\n\t\tuint256 x;\r\n\t\tuint256 a;\r\n\t\t(x, ) = kyber.getExpectedRate(mana, knc, unity);\r\n\t\ta = (x * _amount) - ((x * _amount) % unity);\r\n\t\tx = a / unity;\r\n\t\tuint256 y; \r\n\t\t(y, ) = kyber.getExpectedRate(knc, mana, unity);\r\n\t\ta = (y * _amount) - ((y * _amount) % unity);\r\n\t\ty = a / unity;\r\n\t\treturn (x, y);\r\n\t}\r\n\r\n\r\n\r\n\tfunction newOwner(address _newOwnerAddres) external onlyOwner{\r\n\t\tchangeOwner(_newOwnerAddres);\r\n\t}\r\n\t//Funciones para cambiar y consultar los parametros basicos\r\n\tfunction changeParameters(uint256 _deadline, uint256 _unity) external onlyOwner{\r\n\t\tdeadline = _deadline;\r\n\t\tunity = _unity;\r\n\t}\r\n\tfunction getParameters() external view returns(uint256 _deadline, uint256 _unity){\r\n\t\treturn(deadline, unity);\r\n\t}\r\n}\r\n",
  "sourcePath": "C:\\Users\\User\\Desktop\\Project\\catalanExchange\\ExchangePrice\\contracts\\catalanExchange.sol",
  "compiler": {
    "name": "solc",
    "version": "0.5.0+commit.1d4f565a.Emscripten.clang"
  },
  "schemaVersion": "3.2.0",
  "updatedAt": "2020-07-26T18:37:41.859Z",
  "networkType": "ethereum",
  "devdoc": {
    "methods": {}
  },
  "userdoc": {
    "methods": {}
  }
}