{
  "contractName": "catalanExchange",
  "abi": [
    {
      "constant": true,
      "inputs": [],
      "name": "last_completed_migration",
      "outputs": [
        {
          "name": "",
          "type": "uint256"
        }
      ],
      "payable": false,
      "stateMutability": "view",
      "type": "function"
    },
    {
      "constant": true,
      "inputs": [],
      "name": "uniswapFactory",
      "outputs": [
        {
          "name": "",
          "type": "address"
        }
      ],
      "payable": false,
      "stateMutability": "view",
      "type": "function"
    },
    {
      "constant": true,
      "inputs": [],
      "name": "owner",
      "outputs": [
        {
          "name": "",
          "type": "address"
        }
      ],
      "payable": false,
      "stateMutability": "view",
      "type": "function"
    },
    {
      "constant": true,
      "inputs": [],
      "name": "kyber",
      "outputs": [
        {
          "name": "",
          "type": "address"
        }
      ],
      "payable": false,
      "stateMutability": "view",
      "type": "function"
    },
    {
      "constant": false,
      "inputs": [
        {
          "name": "newOwner",
          "type": "address"
        }
      ],
      "name": "changeOwner",
      "outputs": [],
      "payable": false,
      "stateMutability": "nonpayable",
      "type": "function"
    },
    {
      "constant": true,
      "inputs": [],
      "name": "unity",
      "outputs": [
        {
          "name": "",
          "type": "uint256"
        }
      ],
      "payable": false,
      "stateMutability": "view",
      "type": "function"
    },
    {
      "constant": false,
      "inputs": [
        {
          "name": "completed",
          "type": "uint256"
        }
      ],
      "name": "setCompleted",
      "outputs": [],
      "payable": false,
      "stateMutability": "nonpayable",
      "type": "function"
    },
    {
      "inputs": [
        {
          "name": "_kncAddress",
          "type": "address"
        },
        {
          "name": "_ethAddress",
          "type": "address"
        },
        {
          "name": "_daiAddress",
          "type": "address"
        },
        {
          "name": "_manaAddress",
          "type": "address"
        },
        {
          "name": "UniswapFactoryAddress",
          "type": "address"
        },
        {
          "name": "KyberNetworkProxyAddress",
          "type": "address"
        }
      ],
      "payable": false,
      "stateMutability": "nonpayable",
      "type": "constructor"
    },
    {
      "payable": true,
      "stateMutability": "payable",
      "type": "fallback"
    },
    {
      "constant": false,
      "inputs": [
        {
          "name": "_amount",
          "type": "uint256"
        },
        {
          "name": "_caso",
          "type": "uint256"
        }
      ],
      "name": "transferRapid",
      "outputs": [],
      "payable": false,
      "stateMutability": "nonpayable",
      "type": "function"
    },
    {
      "constant": false,
      "inputs": [
        {
          "name": "_amount",
          "type": "uint256"
        }
      ],
      "name": "buyEthToDai2",
      "outputs": [
        {
          "name": "result",
          "type": "uint256"
        }
      ],
      "payable": true,
      "stateMutability": "payable",
      "type": "function"
    },
    {
      "constant": false,
      "inputs": [
        {
          "name": "_amount",
          "type": "uint256"
        }
      ],
      "name": "buyEthToKnc2",
      "outputs": [
        {
          "name": "result",
          "type": "uint256"
        }
      ],
      "payable": true,
      "stateMutability": "payable",
      "type": "function"
    },
    {
      "constant": false,
      "inputs": [
        {
          "name": "_amount",
          "type": "uint256"
        }
      ],
      "name": "buyEthToMana2",
      "outputs": [
        {
          "name": "result",
          "type": "uint256"
        }
      ],
      "payable": true,
      "stateMutability": "payable",
      "type": "function"
    },
    {
      "constant": false,
      "inputs": [
        {
          "name": "_newOwnerAddres",
          "type": "address"
        }
      ],
      "name": "newOwner",
      "outputs": [],
      "payable": false,
      "stateMutability": "nonpayable",
      "type": "function"
    },
    {
      "constant": false,
      "inputs": [
        {
          "name": "_deadline",
          "type": "uint256"
        },
        {
          "name": "_unity",
          "type": "uint256"
        }
      ],
      "name": "changeParameters",
      "outputs": [],
      "payable": false,
      "stateMutability": "nonpayable",
      "type": "function"
    },
    {
      "constant": true,
      "inputs": [],
      "name": "getParameters",
      "outputs": [
        {
          "name": "_deadline",
          "type": "uint256"
        },
        {
          "name": "_unity",
          "type": "uint256"
        }
      ],
      "payable": false,
      "stateMutability": "view",
      "type": "function"
    }
  ],
  "bytecode": "0x60806040526101a4600555670de0b6b3a76400006006553480156200002357600080fd5b5060405160c08062005f8c833981018060405260c08110156200004557600080fd5b81019080805190602001909291908051906020019092919080519060200190929190805190602001909291908051906020019092919080519060200190929190505050336000806101000a81548173ffffffffffffffffffffffffffffffffffffffff021916908373ffffffffffffffffffffffffffffffffffffffff16021790555084600760006101000a81548173ffffffffffffffffffffffffffffffffffffffff021916908373ffffffffffffffffffffffffffffffffffffffff16021790555083600860006101000a81548173ffffffffffffffffffffffffffffffffffffffff021916908373ffffffffffffffffffffffffffffffffffffffff16021790555085600960006101000a81548173ffffffffffffffffffffffffffffffffffffffff021916908373ffffffffffffffffffffffffffffffffffffffff16021790555082600a60006101000a81548173ffffffffffffffffffffffffffffffffffffffff021916908373ffffffffffffffffffffffffffffffffffffffff16021790555081600260006101000a81548173ffffffffffffffffffffffffffffffffffffffff021916908373ffffffffffffffffffffffffffffffffffffffff160217905550600260009054906101000a900473ffffffffffffffffffffffffffffffffffffffff1673ffffffffffffffffffffffffffffffffffffffff166306f2bf62856040518263ffffffff167c0100000000000000000000000000000000000000000000000000000000028152600401808273ffffffffffffffffffffffffffffffffffffffff1673ffffffffffffffffffffffffffffffffffffffff16815260200191505060206040518083038186803b158015620002c957600080fd5b505afa158015620002de573d6000803e3d6000fd5b505050506040513d6020811015620002f557600080fd5b8101908080519060200190929190505050600460006101000a81548173ffffffffffffffffffffffffffffffffffffffff021916908373ffffffffffffffffffffffffffffffffffffffff16021790555080600360006101000a81548173ffffffffffffffffffffffffffffffffffffffff021916908373ffffffffffffffffffffffffffffffffffffffff160217905550505050505050615bef806200039d6000396000f3fe6080604052600436106100d0576000357c0100000000000000000000000000000000000000000000000000000000900463ffffffff1680631a92c56b146100d257806322ee971214610114578063445df0ac146101565780637aa5bac41461018157806385952454146101c65780638bdb2afa146102175780638da5cb5b1461026e578063a2d10ba5146102c5578063a5ea11da1461031c578063a6f9dae11461034e578063a95e1a051461039f578063c58b15af146103e1578063d311e25414610426578063fdacd57614610451575b005b6100fe600480360360208110156100e857600080fd5b810190808035906020019092919050505061048c565b6040518082815260200191505060405180910390f35b6101406004803603602081101561012a57600080fd5b81019080803590602001909291905050506109be565b6040518082815260200191505060405180910390f35b34801561016257600080fd5b5061016b610ef0565b6040518082815260200191505060405180910390f35b34801561018d57600080fd5b506101c4600480360360408110156101a457600080fd5b810190808035906020019092919080359060200190929190505050610ef6565b005b3480156101d257600080fd5b50610215600480360360208110156101e957600080fd5b81019080803573ffffffffffffffffffffffffffffffffffffffff169060200190929190505050612e4c565b005b34801561022357600080fd5b5061022c612f1c565b604051808273ffffffffffffffffffffffffffffffffffffffff1673ffffffffffffffffffffffffffffffffffffffff16815260200191505060405180910390f35b34801561027a57600080fd5b50610283612f42565b604051808273ffffffffffffffffffffffffffffffffffffffff1673ffffffffffffffffffffffffffffffffffffffff16815260200191505060405180910390f35b3480156102d157600080fd5b506102da612f67565b604051808273ffffffffffffffffffffffffffffffffffffffff1673ffffffffffffffffffffffffffffffffffffffff16815260200191505060405180910390f35b34801561032857600080fd5b50610331612f8d565b604051808381526020018281526020019250505060405180910390f35b34801561035a57600080fd5b5061039d6004803603602081101561037157600080fd5b81019080803573ffffffffffffffffffffffffffffffffffffffff169060200190929190505050612f9e565b005b6103cb600480360360208110156103b557600080fd5b81019080803590602001909291905050506130a5565b6040518082815260200191505060405180910390f35b3480156103ed57600080fd5b506104246004803603604081101561040457600080fd5b81019080803590602001909291908035906020019092919050505061360b565b005b34801561043257600080fd5b5061043b6136e1565b6040518082815260200191505060405180910390f35b34801561045d57600080fd5b5061048a6004803603602081101561047457600080fd5b81019080803590602001909291905050506136e7565b005b6000813410151515610506576040517f08c379a000000000000000000000000000000000000000000000000000000000815260040180806020018281038252601c8152602001807f4e6f20646973706f6e652064656c20457468206e656365736172696f0000000081525060200191505060405180910390fd5b6000600360009054906101000a900473ffffffffffffffffffffffffffffffffffffffff1673ffffffffffffffffffffffffffffffffffffffff1663809a9e55600760009054906101000a900473ffffffffffffffffffffffffffffffffffffffff16600a60009054906101000a900473ffffffffffffffffffffffffffffffffffffffff166006546040518463ffffffff167c0100000000000000000000000000000000000000000000000000000000028152600401808473ffffffffffffffffffffffffffffffffffffffff1673ffffffffffffffffffffffffffffffffffffffff1681526020018373ffffffffffffffffffffffffffffffffffffffff1673ffffffffffffffffffffffffffffffffffffffff1681526020018281526020019350505050604080518083038186803b15801561064457600080fd5b505afa158015610658573d6000803e3d6000fd5b505050506040513d604081101561066e57600080fd5b8101908080519060200190929190805190602001909291905050505080915050600360009054906101000a900473ffffffffffffffffffffffffffffffffffffffff1673ffffffffffffffffffffffffffffffffffffffff16637a2a045684600a60009054906101000a900473ffffffffffffffffffffffffffffffffffffffff16846040518463ffffffff167c0100000000000000000000000000000000000000000000000000000000028152600401808373ffffffffffffffffffffffffffffffffffffffff1673ffffffffffffffffffffffffffffffffffffffff168152602001828152602001925050506020604051808303818588803b15801561077557600080fd5b505af1158015610789573d6000803e3d6000fd5b50505050506040513d60208110156107a057600080fd5b81019080805190602001909291905050509050600a60009054906101000a900473ffffffffffffffffffffffffffffffffffffffff1673ffffffffffffffffffffffffffffffffffffffff1663095ea7b333836040518363ffffffff167c0100000000000000000000000000000000000000000000000000000000028152600401808373ffffffffffffffffffffffffffffffffffffffff1673ffffffffffffffffffffffffffffffffffffffff16815260200182815260200192505050602060405180830381600087803b15801561087857600080fd5b505af115801561088c573d6000803e3d6000fd5b505050506040513d60208110156108a257600080fd5b810190808051906020019092919050505050600a60009054906101000a900473ffffffffffffffffffffffffffffffffffffffff1673ffffffffffffffffffffffffffffffffffffffff1663a9059cbb33836040518363ffffffff167c0100000000000000000000000000000000000000000000000000000000028152600401808373ffffffffffffffffffffffffffffffffffffffff1673ffffffffffffffffffffffffffffffffffffffff16815260200182815260200192505050602060405180830381600087803b15801561097957600080fd5b505af115801561098d573d6000803e3d6000fd5b505050506040513d60208110156109a357600080fd5b81019080805190602001909291905050505080915050919050565b6000813410151515610a38576040517f08c379a000000000000000000000000000000000000000000000000000000000815260040180806020018281038252601c8152602001807f4e6f20646973706f6e652064656c20457468206e656365736172696f0000000081525060200191505060405180910390fd5b6000600360009054906101000a900473ffffffffffffffffffffffffffffffffffffffff1673ffffffffffffffffffffffffffffffffffffffff1663809a9e55600760009054906101000a900473ffffffffffffffffffffffffffffffffffffffff16600960009054906101000a900473ffffffffffffffffffffffffffffffffffffffff166006546040518463ffffffff167c0100000000000000000000000000000000000000000000000000000000028152600401808473ffffffffffffffffffffffffffffffffffffffff1673ffffffffffffffffffffffffffffffffffffffff1681526020018373ffffffffffffffffffffffffffffffffffffffff1673ffffffffffffffffffffffffffffffffffffffff1681526020018281526020019350505050604080518083038186803b158015610b7657600080fd5b505afa158015610b8a573d6000803e3d6000fd5b505050506040513d6040811015610ba057600080fd5b8101908080519060200190929190805190602001909291905050505080915050600360009054906101000a900473ffffffffffffffffffffffffffffffffffffffff1673ffffffffffffffffffffffffffffffffffffffff16637a2a045684600960009054906101000a900473ffffffffffffffffffffffffffffffffffffffff16846040518463ffffffff167c0100000000000000000000000000000000000000000000000000000000028152600401808373ffffffffffffffffffffffffffffffffffffffff1673ffffffffffffffffffffffffffffffffffffffff168152602001828152602001925050506020604051808303818588803b158015610ca757600080fd5b505af1158015610cbb573d6000803e3d6000fd5b50505050506040513d6020811015610cd257600080fd5b81019080805190602001909291905050509050600960009054906101000a900473ffffffffffffffffffffffffffffffffffffffff1673ffffffffffffffffffffffffffffffffffffffff1663095ea7b333836040518363ffffffff167c0100000000000000000000000000000000000000000000000000000000028152600401808373ffffffffffffffffffffffffffffffffffffffff1673ffffffffffffffffffffffffffffffffffffffff16815260200182815260200192505050602060405180830381600087803b158015610daa57600080fd5b505af1158015610dbe573d6000803e3d6000fd5b505050506040513d6020811015610dd457600080fd5b810190808051906020019092919050505050600960009054906101000a900473ffffffffffffffffffffffffffffffffffffffff1673ffffffffffffffffffffffffffffffffffffffff1663a9059cbb33836040518363ffffffff167c0100000000000000000000000000000000000000000000000000000000028152600401808373ffffffffffffffffffffffffffffffffffffffff1673ffffffffffffffffffffffffffffffffffffffff16815260200182815260200192505050602060405180830381600087803b158015610eab57600080fd5b505af1158015610ebf573d6000803e3d6000fd5b505050506040513d6020811015610ed557600080fd5b81019080805190602001909291905050505080915050919050565b60015481565b60008033905060018314156111fa5783600860009054906101000a900473ffffffffffffffffffffffffffffffffffffffff1673ffffffffffffffffffffffffffffffffffffffff166370a08231336040518263ffffffff167c0100000000000000000000000000000000000000000000000000000000028152600401808273ffffffffffffffffffffffffffffffffffffffff1673ffffffffffffffffffffffffffffffffffffffff16815260200191505060206040518083038186803b158015610fc157600080fd5b505afa158015610fd5573d6000803e3d6000fd5b505050506040513d6020811015610feb57600080fd5b810190808051906020019092919050505010151515611072576040517f08c379a00000000000000000000000000000000000000000000000000000000081526004018080602001828103825260128152602001807f4e6f7420456e6f7567687420546f6b656e73000000000000000000000000000081525060200191505060405180910390fd5b600860009054906101000a900473ffffffffffffffffffffffffffffffffffffffff1673ffffffffffffffffffffffffffffffffffffffff166323b872dd3330876040518463ffffffff167c0100000000000000000000000000000000000000000000000000000000028152600401808473ffffffffffffffffffffffffffffffffffffffff1673ffffffffffffffffffffffffffffffffffffffff1681526020018373ffffffffffffffffffffffffffffffffffffffff1673ffffffffffffffffffffffffffffffffffffffff1681526020018281526020019350505050602060405180830381600087803b15801561116b57600080fd5b505af115801561117f573d6000803e3d6000fd5b505050506040513d602081101561119557600080fd5b8101908080519060200190929190505050506111b0846136f1565b91508073ffffffffffffffffffffffffffffffffffffffff166108fc839081150290604051600060405180830381858888f193505050501580156111f8573d6000803e3d6000fd5b505b60028314156114f85783600960009054906101000a900473ffffffffffffffffffffffffffffffffffffffff1673ffffffffffffffffffffffffffffffffffffffff166370a08231336040518263ffffffff167c0100000000000000000000000000000000000000000000000000000000028152600401808273ffffffffffffffffffffffffffffffffffffffff1673ffffffffffffffffffffffffffffffffffffffff16815260200191505060206040518083038186803b1580156112bf57600080fd5b505afa1580156112d3573d6000803e3d6000fd5b505050506040513d60208110156112e957600080fd5b810190808051906020019092919050505010151515611370576040517f08c379a00000000000000000000000000000000000000000000000000000000081526004018080602001828103825260128152602001807f4e6f7420456e6f7567687420546f6b656e73000000000000000000000000000081525060200191505060405180910390fd5b600960009054906101000a900473ffffffffffffffffffffffffffffffffffffffff1673ffffffffffffffffffffffffffffffffffffffff166323b872dd3330876040518463ffffffff167c0100000000000000000000000000000000000000000000000000000000028152600401808473ffffffffffffffffffffffffffffffffffffffff1673ffffffffffffffffffffffffffffffffffffffff1681526020018373ffffffffffffffffffffffffffffffffffffffff1673ffffffffffffffffffffffffffffffffffffffff1681526020018281526020019350505050602060405180830381600087803b15801561146957600080fd5b505af115801561147d573d6000803e3d6000fd5b505050506040513d602081101561149357600080fd5b8101908080519060200190929190505050506114ae84613acf565b91508073ffffffffffffffffffffffffffffffffffffffff166108fc839081150290604051600060405180830381858888f193505050501580156114f6573d6000803e3d6000fd5b505b60038314156117f65783600a60009054906101000a900473ffffffffffffffffffffffffffffffffffffffff1673ffffffffffffffffffffffffffffffffffffffff166370a08231336040518263ffffffff167c0100000000000000000000000000000000000000000000000000000000028152600401808273ffffffffffffffffffffffffffffffffffffffff1673ffffffffffffffffffffffffffffffffffffffff16815260200191505060206040518083038186803b1580156115bd57600080fd5b505afa1580156115d1573d6000803e3d6000fd5b505050506040513d60208110156115e757600080fd5b81019080805190602001909291905050501015151561166e576040517f08c379a00000000000000000000000000000000000000000000000000000000081526004018080602001828103825260128152602001807f4e6f7420456e6f7567687420546f6b656e73000000000000000000000000000081525060200191505060405180910390fd5b600a60009054906101000a900473ffffffffffffffffffffffffffffffffffffffff1673ffffffffffffffffffffffffffffffffffffffff166323b872dd3330876040518463ffffffff167c0100000000000000000000000000000000000000000000000000000000028152600401808473ffffffffffffffffffffffffffffffffffffffff1673ffffffffffffffffffffffffffffffffffffffff1681526020018373ffffffffffffffffffffffffffffffffffffffff1673ffffffffffffffffffffffffffffffffffffffff1681526020018281526020019350505050602060405180830381600087803b15801561176757600080fd5b505af115801561177b573d6000803e3d6000fd5b505050506040513d602081101561179157600080fd5b8101908080519060200190929190505050506117ac84613ead565b91508073ffffffffffffffffffffffffffffffffffffffff166108fc839081150290604051600060405180830381858888f193505050501580156117f4573d6000803e3d6000fd5b505b6004831415611bae5783600860009054906101000a900473ffffffffffffffffffffffffffffffffffffffff1673ffffffffffffffffffffffffffffffffffffffff166370a08231336040518263ffffffff167c0100000000000000000000000000000000000000000000000000000000028152600401808273ffffffffffffffffffffffffffffffffffffffff1673ffffffffffffffffffffffffffffffffffffffff16815260200191505060206040518083038186803b1580156118bb57600080fd5b505afa1580156118cf573d6000803e3d6000fd5b505050506040513d60208110156118e557600080fd5b81019080805190602001909291905050501015151561196c576040517f08c379a00000000000000000000000000000000000000000000000000000000081526004018080602001828103825260128152602001807f4e6f7420456e6f7567687420546f6b656e73000000000000000000000000000081525060200191505060405180910390fd5b600860009054906101000a900473ffffffffffffffffffffffffffffffffffffffff1673ffffffffffffffffffffffffffffffffffffffff166323b872dd3330876040518463ffffffff167c0100000000000000000000000000000000000000000000000000000000028152600401808473ffffffffffffffffffffffffffffffffffffffff1673ffffffffffffffffffffffffffffffffffffffff1681526020018373ffffffffffffffffffffffffffffffffffffffff1673ffffffffffffffffffffffffffffffffffffffff1681526020018281526020019350505050602060405180830381600087803b158015611a6557600080fd5b505af1158015611a79573d6000803e3d6000fd5b505050506040513d6020811015611a8f57600080fd5b810190808051906020019092919050505050611aaa8461428b565b9150600960009054906101000a900473ffffffffffffffffffffffffffffffffffffffff1673ffffffffffffffffffffffffffffffffffffffff1663a9059cbb82846040518363ffffffff167c0100000000000000000000000000000000000000000000000000000000028152600401808373ffffffffffffffffffffffffffffffffffffffff1673ffffffffffffffffffffffffffffffffffffffff16815260200182815260200192505050602060405180830381600087803b158015611b7157600080fd5b505af1158015611b85573d6000803e3d6000fd5b505050506040513d6020811015611b9b57600080fd5b8101908080519060200190929190505050505b6005831415611f665783600960009054906101000a900473ffffffffffffffffffffffffffffffffffffffff1673ffffffffffffffffffffffffffffffffffffffff166370a08231336040518263ffffffff167c0100000000000000000000000000000000000000000000000000000000028152600401808273ffffffffffffffffffffffffffffffffffffffff1673ffffffffffffffffffffffffffffffffffffffff16815260200191505060206040518083038186803b158015611c7357600080fd5b505afa158015611c87573d6000803e3d6000fd5b505050506040513d6020811015611c9d57600080fd5b810190808051906020019092919050505010151515611d24576040517f08c379a00000000000000000000000000000000000000000000000000000000081526004018080602001828103825260128152602001807f4e6f7420456e6f7567687420546f6b656e73000000000000000000000000000081525060200191505060405180910390fd5b600960009054906101000a900473ffffffffffffffffffffffffffffffffffffffff1673ffffffffffffffffffffffffffffffffffffffff166323b872dd3330876040518463ffffffff167c0100000000000000000000000000000000000000000000000000000000028152600401808473ffffffffffffffffffffffffffffffffffffffff1673ffffffffffffffffffffffffffffffffffffffff1681526020018373ffffffffffffffffffffffffffffffffffffffff1673ffffffffffffffffffffffffffffffffffffffff1681526020018281526020019350505050602060405180830381600087803b158015611e1d57600080fd5b505af1158015611e31573d6000803e3d6000fd5b505050506040513d6020811015611e4757600080fd5b810190808051906020019092919050505050611e62846146bf565b9150600860009054906101000a900473ffffffffffffffffffffffffffffffffffffffff1673ffffffffffffffffffffffffffffffffffffffff1663a9059cbb82846040518363ffffffff167c0100000000000000000000000000000000000000000000000000000000028152600401808373ffffffffffffffffffffffffffffffffffffffff1673ffffffffffffffffffffffffffffffffffffffff16815260200182815260200192505050602060405180830381600087803b158015611f2957600080fd5b505af1158015611f3d573d6000803e3d6000fd5b505050506040513d6020811015611f5357600080fd5b8101908080519060200190929190505050505b600683141561231e5783600a60009054906101000a900473ffffffffffffffffffffffffffffffffffffffff1673ffffffffffffffffffffffffffffffffffffffff166370a08231336040518263ffffffff167c0100000000000000000000000000000000000000000000000000000000028152600401808273ffffffffffffffffffffffffffffffffffffffff1673ffffffffffffffffffffffffffffffffffffffff16815260200191505060206040518083038186803b15801561202b57600080fd5b505afa15801561203f573d6000803e3d6000fd5b505050506040513d602081101561205557600080fd5b8101908080519060200190929190505050101515156120dc576040517f08c379a00000000000000000000000000000000000000000000000000000000081526004018080602001828103825260128152602001807f4e6f7420456e6f7567687420546f6b656e73000000000000000000000000000081525060200191505060405180910390fd5b600a60009054906101000a900473ffffffffffffffffffffffffffffffffffffffff1673ffffffffffffffffffffffffffffffffffffffff166323b872dd3330876040518463ffffffff167c0100000000000000000000000000000000000000000000000000000000028152600401808473ffffffffffffffffffffffffffffffffffffffff1673ffffffffffffffffffffffffffffffffffffffff1681526020018373ffffffffffffffffffffffffffffffffffffffff1673ffffffffffffffffffffffffffffffffffffffff1681526020018281526020019350505050602060405180830381600087803b1580156121d557600080fd5b505af11580156121e9573d6000803e3d6000fd5b505050506040513d60208110156121ff57600080fd5b81019080805190602001909291905050505061221a84614af3565b9150600960009054906101000a900473ffffffffffffffffffffffffffffffffffffffff1673ffffffffffffffffffffffffffffffffffffffff1663a9059cbb82846040518363ffffffff167c0100000000000000000000000000000000000000000000000000000000028152600401808373ffffffffffffffffffffffffffffffffffffffff1673ffffffffffffffffffffffffffffffffffffffff16815260200182815260200192505050602060405180830381600087803b1580156122e157600080fd5b505af11580156122f5573d6000803e3d6000fd5b505050506040513d602081101561230b57600080fd5b8101908080519060200190929190505050505b60078314156126d65783600a60009054906101000a900473ffffffffffffffffffffffffffffffffffffffff1673ffffffffffffffffffffffffffffffffffffffff166370a08231336040518263ffffffff167c0100000000000000000000000000000000000000000000000000000000028152600401808273ffffffffffffffffffffffffffffffffffffffff1673ffffffffffffffffffffffffffffffffffffffff16815260200191505060206040518083038186803b1580156123e357600080fd5b505afa1580156123f7573d6000803e3d6000fd5b505050506040513d602081101561240d57600080fd5b810190808051906020019092919050505010151515612494576040517f08c379a00000000000000000000000000000000000000000000000000000000081526004018080602001828103825260128152602001807f4e6f7420456e6f7567687420546f6b656e73000000000000000000000000000081525060200191505060405180910390fd5b600a60009054906101000a900473ffffffffffffffffffffffffffffffffffffffff1673ffffffffffffffffffffffffffffffffffffffff166323b872dd3330876040518463ffffffff167c0100000000000000000000000000000000000000000000000000000000028152600401808473ffffffffffffffffffffffffffffffffffffffff1673ffffffffffffffffffffffffffffffffffffffff1681526020018373ffffffffffffffffffffffffffffffffffffffff1673ffffffffffffffffffffffffffffffffffffffff1681526020018281526020019350505050602060405180830381600087803b15801561258d57600080fd5b505af11580156125a1573d6000803e3d6000fd5b505050506040513d60208110156125b757600080fd5b8101908080519060200190929190505050506125d284614f27565b9150600860009054906101000a900473ffffffffffffffffffffffffffffffffffffffff1673ffffffffffffffffffffffffffffffffffffffff1663a9059cbb82846040518363ffffffff167c0100000000000000000000000000000000000000000000000000000000028152600401808373ffffffffffffffffffffffffffffffffffffffff1673ffffffffffffffffffffffffffffffffffffffff16815260200182815260200192505050602060405180830381600087803b15801561269957600080fd5b505af11580156126ad573d6000803e3d6000fd5b505050506040513d60208110156126c357600080fd5b8101908080519060200190929190505050505b6008831415612a8e5783600860009054906101000a900473ffffffffffffffffffffffffffffffffffffffff1673ffffffffffffffffffffffffffffffffffffffff166370a08231336040518263ffffffff167c0100000000000000000000000000000000000000000000000000000000028152600401808273ffffffffffffffffffffffffffffffffffffffff1673ffffffffffffffffffffffffffffffffffffffff16815260200191505060206040518083038186803b15801561279b57600080fd5b505afa1580156127af573d6000803e3d6000fd5b505050506040513d60208110156127c557600080fd5b81019080805190602001909291905050501015151561284c576040517f08c379a00000000000000000000000000000000000000000000000000000000081526004018080602001828103825260128152602001807f4e6f7420456e6f7567687420546f6b656e73000000000000000000000000000081525060200191505060405180910390fd5b600860009054906101000a900473ffffffffffffffffffffffffffffffffffffffff1673ffffffffffffffffffffffffffffffffffffffff166323b872dd3330876040518463ffffffff167c0100000000000000000000000000000000000000000000000000000000028152600401808473ffffffffffffffffffffffffffffffffffffffff1673ffffffffffffffffffffffffffffffffffffffff1681526020018373ffffffffffffffffffffffffffffffffffffffff1673ffffffffffffffffffffffffffffffffffffffff1681526020018281526020019350505050602060405180830381600087803b15801561294557600080fd5b505af1158015612959573d6000803e3d6000fd5b505050506040513d602081101561296f57600080fd5b81019080805190602001909291905050505061298a8461535b565b9150600a60009054906101000a900473ffffffffffffffffffffffffffffffffffffffff1673ffffffffffffffffffffffffffffffffffffffff1663a9059cbb82846040518363ffffffff167c0100000000000000000000000000000000000000000000000000000000028152600401808373ffffffffffffffffffffffffffffffffffffffff1673ffffffffffffffffffffffffffffffffffffffff16815260200182815260200192505050602060405180830381600087803b158015612a5157600080fd5b505af1158015612a65573d6000803e3d6000fd5b505050506040513d6020811015612a7b57600080fd5b8101908080519060200190929190505050505b6009831415612e465783600960009054906101000a900473ffffffffffffffffffffffffffffffffffffffff1673ffffffffffffffffffffffffffffffffffffffff166370a08231336040518263ffffffff167c0100000000000000000000000000000000000000000000000000000000028152600401808273ffffffffffffffffffffffffffffffffffffffff1673ffffffffffffffffffffffffffffffffffffffff16815260200191505060206040518083038186803b158015612b5357600080fd5b505afa158015612b67573d6000803e3d6000fd5b505050506040513d6020811015612b7d57600080fd5b810190808051906020019092919050505010151515612c04576040517f08c379a00000000000000000000000000000000000000000000000000000000081526004018080602001828103825260128152602001807f4e6f7420456e6f7567687420546f6b656e73000000000000000000000000000081525060200191505060405180910390fd5b600960009054906101000a900473ffffffffffffffffffffffffffffffffffffffff1673ffffffffffffffffffffffffffffffffffffffff166323b872dd3330876040518463ffffffff167c0100000000000000000000000000000000000000000000000000000000028152600401808473ffffffffffffffffffffffffffffffffffffffff1673ffffffffffffffffffffffffffffffffffffffff1681526020018373ffffffffffffffffffffffffffffffffffffffff1673ffffffffffffffffffffffffffffffffffffffff1681526020018281526020019350505050602060405180830381600087803b158015612cfd57600080fd5b505af1158015612d11573d6000803e3d6000fd5b505050506040513d6020811015612d2757600080fd5b810190808051906020019092919050505050612d428461578f565b9150600a60009054906101000a900473ffffffffffffffffffffffffffffffffffffffff1673ffffffffffffffffffffffffffffffffffffffff1663a9059cbb82846040518363ffffffff167c0100000000000000000000000000000000000000000000000000000000028152600401808373ffffffffffffffffffffffffffffffffffffffff1673ffffffffffffffffffffffffffffffffffffffff16815260200182815260200192505050602060405180830381600087803b158015612e0957600080fd5b505af1158015612e1d573d6000803e3d6000fd5b505050506040513d6020811015612e3357600080fd5b8101908080519060200190929190505050505b50505050565b6000809054906101000a900473ffffffffffffffffffffffffffffffffffffffff1673ffffffffffffffffffffffffffffffffffffffff163373ffffffffffffffffffffffffffffffffffffffff16141515612f10576040517f08c379a00000000000000000000000000000000000000000000000000000000081526004018080602001828103825260098152602001807f4e6f74204f776e6572000000000000000000000000000000000000000000000081525060200191505060405180910390fd5b612f1981612f9e565b50565b600260009054906101000a900473ffffffffffffffffffffffffffffffffffffffff1681565b6000809054906101000a900473ffffffffffffffffffffffffffffffffffffffff1681565b600360009054906101000a900473ffffffffffffffffffffffffffffffffffffffff1681565b600080600554600654915091509091565b6000809054906101000a900473ffffffffffffffffffffffffffffffffffffffff1673ffffffffffffffffffffffffffffffffffffffff163373ffffffffffffffffffffffffffffffffffffffff16141515613062576040517f08c379a00000000000000000000000000000000000000000000000000000000081526004018080602001828103825260098152602001807f4e6f74204f776e6572000000000000000000000000000000000000000000000081525060200191505060405180910390fd5b806000806101000a81548173ffffffffffffffffffffffffffffffffffffffff021916908373ffffffffffffffffffffffffffffffffffffffff16021790555050565b600081341015151561311f576040517f08c379a000000000000000000000000000000000000000000000000000000000815260040180806020018281038252601c8152602001807f4e6f20646973706f6e652064656c20457468206e656365736172696f0000000081525060200191505060405180910390fd5b6000600360009054906101000a900473ffffffffffffffffffffffffffffffffffffffff1673ffffffffffffffffffffffffffffffffffffffff1663809a9e55600760009054906101000a900473ffffffffffffffffffffffffffffffffffffffff16600860009054906101000a900473ffffffffffffffffffffffffffffffffffffffff166006546040518463ffffffff167c0100000000000000000000000000000000000000000000000000000000028152600401808473ffffffffffffffffffffffffffffffffffffffff1673ffffffffffffffffffffffffffffffffffffffff1681526020018373ffffffffffffffffffffffffffffffffffffffff1673ffffffffffffffffffffffffffffffffffffffff1681526020018281526020019350505050604080518083038186803b15801561325d57600080fd5b505afa158015613271573d6000803e3d6000fd5b505050506040513d604081101561328757600080fd5b8101908080519060200190929190805190602001909291905050505080915050600360009054906101000a900473ffffffffffffffffffffffffffffffffffffffff1673ffffffffffffffffffffffffffffffffffffffff16637a2a045684600860009054906101000a900473ffffffffffffffffffffffffffffffffffffffff16846040518463ffffffff167c0100000000000000000000000000000000000000000000000000000000028152600401808373ffffffffffffffffffffffffffffffffffffffff1673ffffffffffffffffffffffffffffffffffffffff168152602001828152602001925050506020604051808303818588803b15801561338e57600080fd5b505af11580156133a2573d6000803e3d6000fd5b50505050506040513d60208110156133b957600080fd5b81019080805190602001909291905050509050600860009054906101000a900473ffffffffffffffffffffffffffffffffffffffff1673ffffffffffffffffffffffffffffffffffffffff1663095ea7b333836040518363ffffffff167c0100000000000000000000000000000000000000000000000000000000028152600401808373ffffffffffffffffffffffffffffffffffffffff1673ffffffffffffffffffffffffffffffffffffffff16815260200182815260200192505050602060405180830381600087803b15801561349157600080fd5b505af11580156134a5573d6000803e3d6000fd5b505050506040513d60208110156134bb57600080fd5b810190808051906020019092919050505050600860009054906101000a900473ffffffffffffffffffffffffffffffffffffffff1673ffffffffffffffffffffffffffffffffffffffff166323b872dd3033846040518463ffffffff167c0100000000000000000000000000000000000000000000000000000000028152600401808473ffffffffffffffffffffffffffffffffffffffff1673ffffffffffffffffffffffffffffffffffffffff1681526020018373ffffffffffffffffffffffffffffffffffffffff1673ffffffffffffffffffffffffffffffffffffffff1681526020018281526020019350505050602060405180830381600087803b1580156135c657600080fd5b505af11580156135da573d6000803e3d6000fd5b505050506040513d60208110156135f057600080fd5b81019080805190602001909291905050505080915050919050565b6000809054906101000a900473ffffffffffffffffffffffffffffffffffffffff1673ffffffffffffffffffffffffffffffffffffffff163373ffffffffffffffffffffffffffffffffffffffff161415156136cf576040517f08c379a00000000000000000000000000000000000000000000000000000000081526004018080602001828103825260098152602001807f4e6f74204f776e6572000000000000000000000000000000000000000000000081525060200191505060405180910390fd5b81600581905550806006819055505050565b60065481565b8060018190555050565b600080600360009054906101000a900473ffffffffffffffffffffffffffffffffffffffff1673ffffffffffffffffffffffffffffffffffffffff1663809a9e55600860009054906101000a900473ffffffffffffffffffffffffffffffffffffffff16600760009054906101000a900473ffffffffffffffffffffffffffffffffffffffff166006546040518463ffffffff167c0100000000000000000000000000000000000000000000000000000000028152600401808473ffffffffffffffffffffffffffffffffffffffff1673ffffffffffffffffffffffffffffffffffffffff1681526020018373ffffffffffffffffffffffffffffffffffffffff1673ffffffffffffffffffffffffffffffffffffffff1681526020018281526020019350505050604080518083038186803b15801561383057600080fd5b505afa158015613844573d6000803e3d6000fd5b505050506040513d604081101561385a57600080fd5b8101908080519060200190929190805190602001909291905050505080915050600860009054906101000a900473ffffffffffffffffffffffffffffffffffffffff1673ffffffffffffffffffffffffffffffffffffffff1663095ea7b3600360009054906101000a900473ffffffffffffffffffffffffffffffffffffffff16856040518363ffffffff167c0100000000000000000000000000000000000000000000000000000000028152600401808373ffffffffffffffffffffffffffffffffffffffff1673ffffffffffffffffffffffffffffffffffffffff16815260200182815260200192505050602060405180830381600087803b15801561396157600080fd5b505af1158015613975573d6000803e3d6000fd5b505050506040513d602081101561398b57600080fd5b810190808051906020019092919050505050600360009054906101000a900473ffffffffffffffffffffffffffffffffffffffff1673ffffffffffffffffffffffffffffffffffffffff16633bba21dc600860009054906101000a900473ffffffffffffffffffffffffffffffffffffffff1685846040518463ffffffff167c0100000000000000000000000000000000000000000000000000000000028152600401808473ffffffffffffffffffffffffffffffffffffffff1673ffffffffffffffffffffffffffffffffffffffff1681526020018381526020018281526020019350505050602060405180830381600087803b158015613a8c57600080fd5b505af1158015613aa0573d6000803e3d6000fd5b505050506040513d6020811015613ab657600080fd5b8101908080519060200190929190505050915050919050565b600080600360009054906101000a900473ffffffffffffffffffffffffffffffffffffffff1673ffffffffffffffffffffffffffffffffffffffff1663809a9e55600960009054906101000a900473ffffffffffffffffffffffffffffffffffffffff16600760009054906101000a900473ffffffffffffffffffffffffffffffffffffffff166006546040518463ffffffff167c0100000000000000000000000000000000000000000000000000000000028152600401808473ffffffffffffffffffffffffffffffffffffffff1673ffffffffffffffffffffffffffffffffffffffff1681526020018373ffffffffffffffffffffffffffffffffffffffff1673ffffffffffffffffffffffffffffffffffffffff1681526020018281526020019350505050604080518083038186803b158015613c0e57600080fd5b505afa158015613c22573d6000803e3d6000fd5b505050506040513d6040811015613c3857600080fd5b8101908080519060200190929190805190602001909291905050505080915050600960009054906101000a900473ffffffffffffffffffffffffffffffffffffffff1673ffffffffffffffffffffffffffffffffffffffff1663095ea7b3600360009054906101000a900473ffffffffffffffffffffffffffffffffffffffff16856040518363ffffffff167c0100000000000000000000000000000000000000000000000000000000028152600401808373ffffffffffffffffffffffffffffffffffffffff1673ffffffffffffffffffffffffffffffffffffffff16815260200182815260200192505050602060405180830381600087803b158015613d3f57600080fd5b505af1158015613d53573d6000803e3d6000fd5b505050506040513d6020811015613d6957600080fd5b810190808051906020019092919050505050600360009054906101000a900473ffffffffffffffffffffffffffffffffffffffff1673ffffffffffffffffffffffffffffffffffffffff16633bba21dc600960009054906101000a900473ffffffffffffffffffffffffffffffffffffffff1685846040518463ffffffff167c0100000000000000000000000000000000000000000000000000000000028152600401808473ffffffffffffffffffffffffffffffffffffffff1673ffffffffffffffffffffffffffffffffffffffff1681526020018381526020018281526020019350505050602060405180830381600087803b158015613e6a57600080fd5b505af1158015613e7e573d6000803e3d6000fd5b505050506040513d6020811015613e9457600080fd5b8101908080519060200190929190505050915050919050565b600080600360009054906101000a900473ffffffffffffffffffffffffffffffffffffffff1673ffffffffffffffffffffffffffffffffffffffff1663809a9e55600a60009054906101000a900473ffffffffffffffffffffffffffffffffffffffff16600760009054906101000a900473ffffffffffffffffffffffffffffffffffffffff166006546040518463ffffffff167c0100000000000000000000000000000000000000000000000000000000028152600401808473ffffffffffffffffffffffffffffffffffffffff1673ffffffffffffffffffffffffffffffffffffffff1681526020018373ffffffffffffffffffffffffffffffffffffffff1673ffffffffffffffffffffffffffffffffffffffff1681526020018281526020019350505050604080518083038186803b158015613fec57600080fd5b505afa158015614000573d6000803e3d6000fd5b505050506040513d604081101561401657600080fd5b8101908080519060200190929190805190602001909291905050505080915050600a60009054906101000a900473ffffffffffffffffffffffffffffffffffffffff1673ffffffffffffffffffffffffffffffffffffffff1663095ea7b3600360009054906101000a900473ffffffffffffffffffffffffffffffffffffffff16856040518363ffffffff167c0100000000000000000000000000000000000000000000000000000000028152600401808373ffffffffffffffffffffffffffffffffffffffff1673ffffffffffffffffffffffffffffffffffffffff16815260200182815260200192505050602060405180830381600087803b15801561411d57600080fd5b505af1158015614131573d6000803e3d6000fd5b505050506040513d602081101561414757600080fd5b810190808051906020019092919050505050600360009054906101000a900473ffffffffffffffffffffffffffffffffffffffff1673ffffffffffffffffffffffffffffffffffffffff16633bba21dc600a60009054906101000a900473ffffffffffffffffffffffffffffffffffffffff1685846040518463ffffffff167c0100000000000000000000000000000000000000000000000000000000028152600401808473ffffffffffffffffffffffffffffffffffffffff1673ffffffffffffffffffffffffffffffffffffffff1681526020018381526020018281526020019350505050602060405180830381600087803b15801561424857600080fd5b505af115801561425c573d6000803e3d6000fd5b505050506040513d602081101561427257600080fd5b8101908080519060200190929190505050915050919050565b600080600360009054906101000a900473ffffffffffffffffffffffffffffffffffffffff1673ffffffffffffffffffffffffffffffffffffffff1663809a9e55600860009054906101000a900473ffffffffffffffffffffffffffffffffffffffff16600960009054906101000a900473ffffffffffffffffffffffffffffffffffffffff166006546040518463ffffffff167c0100000000000000000000000000000000000000000000000000000000028152600401808473ffffffffffffffffffffffffffffffffffffffff1673ffffffffffffffffffffffffffffffffffffffff1681526020018373ffffffffffffffffffffffffffffffffffffffff1673ffffffffffffffffffffffffffffffffffffffff1681526020018281526020019350505050604080518083038186803b1580156143ca57600080fd5b505afa1580156143de573d6000803e3d6000fd5b505050506040513d60408110156143f457600080fd5b8101908080519060200190929190805190602001909291905050505080915050600860009054906101000a900473ffffffffffffffffffffffffffffffffffffffff1673ffffffffffffffffffffffffffffffffffffffff1663095ea7b3600360009054906101000a900473ffffffffffffffffffffffffffffffffffffffff16856040518363ffffffff167c0100000000000000000000000000000000000000000000000000000000028152600401808373ffffffffffffffffffffffffffffffffffffffff1673ffffffffffffffffffffffffffffffffffffffff16815260200182815260200192505050602060405180830381600087803b1580156144fb57600080fd5b505af115801561450f573d6000803e3d6000fd5b505050506040513d602081101561452557600080fd5b810190808051906020019092919050505050600360009054906101000a900473ffffffffffffffffffffffffffffffffffffffff1673ffffffffffffffffffffffffffffffffffffffff16637409e2eb600860009054906101000a900473ffffffffffffffffffffffffffffffffffffffff1685600960009054906101000a900473ffffffffffffffffffffffffffffffffffffffff16856040518563ffffffff167c0100000000000000000000000000000000000000000000000000000000028152600401808573ffffffffffffffffffffffffffffffffffffffff1673ffffffffffffffffffffffffffffffffffffffff1681526020018481526020018373ffffffffffffffffffffffffffffffffffffffff1673ffffffffffffffffffffffffffffffffffffffff168152602001828152602001945050505050602060405180830381600087803b15801561467c57600080fd5b505af1158015614690573d6000803e3d6000fd5b505050506040513d60208110156146a657600080fd5b8101908080519060200190929190505050915050919050565b600080600360009054906101000a900473ffffffffffffffffffffffffffffffffffffffff1673ffffffffffffffffffffffffffffffffffffffff1663809a9e55600960009054906101000a900473ffffffffffffffffffffffffffffffffffffffff16600860009054906101000a900473ffffffffffffffffffffffffffffffffffffffff166006546040518463ffffffff167c0100000000000000000000000000000000000000000000000000000000028152600401808473ffffffffffffffffffffffffffffffffffffffff1673ffffffffffffffffffffffffffffffffffffffff1681526020018373ffffffffffffffffffffffffffffffffffffffff1673ffffffffffffffffffffffffffffffffffffffff1681526020018281526020019350505050604080518083038186803b1580156147fe57600080fd5b505afa158015614812573d6000803e3d6000fd5b505050506040513d604081101561482857600080fd5b8101908080519060200190929190805190602001909291905050505080915050600960009054906101000a900473ffffffffffffffffffffffffffffffffffffffff1673ffffffffffffffffffffffffffffffffffffffff1663095ea7b3600360009054906101000a900473ffffffffffffffffffffffffffffffffffffffff16856040518363ffffffff167c0100000000000000000000000000000000000000000000000000000000028152600401808373ffffffffffffffffffffffffffffffffffffffff1673ffffffffffffffffffffffffffffffffffffffff16815260200182815260200192505050602060405180830381600087803b15801561492f57600080fd5b505af1158015614943573d6000803e3d6000fd5b505050506040513d602081101561495957600080fd5b810190808051906020019092919050505050600360009054906101000a900473ffffffffffffffffffffffffffffffffffffffff1673ffffffffffffffffffffffffffffffffffffffff16637409e2eb600960009054906101000a900473ffffffffffffffffffffffffffffffffffffffff1685600860009054906101000a900473ffffffffffffffffffffffffffffffffffffffff16856040518563ffffffff167c0100000000000000000000000000000000000000000000000000000000028152600401808573ffffffffffffffffffffffffffffffffffffffff1673ffffffffffffffffffffffffffffffffffffffff1681526020018481526020018373ffffffffffffffffffffffffffffffffffffffff1673ffffffffffffffffffffffffffffffffffffffff168152602001828152602001945050505050602060405180830381600087803b158015614ab057600080fd5b505af1158015614ac4573d6000803e3d6000fd5b505050506040513d6020811015614ada57600080fd5b8101908080519060200190929190505050915050919050565b600080600360009054906101000a900473ffffffffffffffffffffffffffffffffffffffff1673ffffffffffffffffffffffffffffffffffffffff1663809a9e55600a60009054906101000a900473ffffffffffffffffffffffffffffffffffffffff16600960009054906101000a900473ffffffffffffffffffffffffffffffffffffffff166006546040518463ffffffff167c0100000000000000000000000000000000000000000000000000000000028152600401808473ffffffffffffffffffffffffffffffffffffffff1673ffffffffffffffffffffffffffffffffffffffff1681526020018373ffffffffffffffffffffffffffffffffffffffff1673ffffffffffffffffffffffffffffffffffffffff1681526020018281526020019350505050604080518083038186803b158015614c3257600080fd5b505afa158015614c46573d6000803e3d6000fd5b505050506040513d6040811015614c5c57600080fd5b8101908080519060200190929190805190602001909291905050505080915050600a60009054906101000a900473ffffffffffffffffffffffffffffffffffffffff1673ffffffffffffffffffffffffffffffffffffffff1663095ea7b3600360009054906101000a900473ffffffffffffffffffffffffffffffffffffffff16856040518363ffffffff167c0100000000000000000000000000000000000000000000000000000000028152600401808373ffffffffffffffffffffffffffffffffffffffff1673ffffffffffffffffffffffffffffffffffffffff16815260200182815260200192505050602060405180830381600087803b158015614d6357600080fd5b505af1158015614d77573d6000803e3d6000fd5b505050506040513d6020811015614d8d57600080fd5b810190808051906020019092919050505050600360009054906101000a900473ffffffffffffffffffffffffffffffffffffffff1673ffffffffffffffffffffffffffffffffffffffff16637409e2eb600a60009054906101000a900473ffffffffffffffffffffffffffffffffffffffff1685600960009054906101000a900473ffffffffffffffffffffffffffffffffffffffff16856040518563ffffffff167c0100000000000000000000000000000000000000000000000000000000028152600401808573ffffffffffffffffffffffffffffffffffffffff1673ffffffffffffffffffffffffffffffffffffffff1681526020018481526020018373ffffffffffffffffffffffffffffffffffffffff1673ffffffffffffffffffffffffffffffffffffffff168152602001828152602001945050505050602060405180830381600087803b158015614ee457600080fd5b505af1158015614ef8573d6000803e3d6000fd5b505050506040513d6020811015614f0e57600080fd5b8101908080519060200190929190505050915050919050565b600080600360009054906101000a900473ffffffffffffffffffffffffffffffffffffffff1673ffffffffffffffffffffffffffffffffffffffff1663809a9e55600a60009054906101000a900473ffffffffffffffffffffffffffffffffffffffff16600860009054906101000a900473ffffffffffffffffffffffffffffffffffffffff166006546040518463ffffffff167c0100000000000000000000000000000000000000000000000000000000028152600401808473ffffffffffffffffffffffffffffffffffffffff1673ffffffffffffffffffffffffffffffffffffffff1681526020018373ffffffffffffffffffffffffffffffffffffffff1673ffffffffffffffffffffffffffffffffffffffff1681526020018281526020019350505050604080518083038186803b15801561506657600080fd5b505afa15801561507a573d6000803e3d6000fd5b505050506040513d604081101561509057600080fd5b8101908080519060200190929190805190602001909291905050505080915050600a60009054906101000a900473ffffffffffffffffffffffffffffffffffffffff1673ffffffffffffffffffffffffffffffffffffffff1663095ea7b3600360009054906101000a900473ffffffffffffffffffffffffffffffffffffffff16856040518363ffffffff167c0100000000000000000000000000000000000000000000000000000000028152600401808373ffffffffffffffffffffffffffffffffffffffff1673ffffffffffffffffffffffffffffffffffffffff16815260200182815260200192505050602060405180830381600087803b15801561519757600080fd5b505af11580156151ab573d6000803e3d6000fd5b505050506040513d60208110156151c157600080fd5b810190808051906020019092919050505050600360009054906101000a900473ffffffffffffffffffffffffffffffffffffffff1673ffffffffffffffffffffffffffffffffffffffff16637409e2eb600a60009054906101000a900473ffffffffffffffffffffffffffffffffffffffff1685600860009054906101000a900473ffffffffffffffffffffffffffffffffffffffff16856040518563ffffffff167c0100000000000000000000000000000000000000000000000000000000028152600401808573ffffffffffffffffffffffffffffffffffffffff1673ffffffffffffffffffffffffffffffffffffffff1681526020018481526020018373ffffffffffffffffffffffffffffffffffffffff1673ffffffffffffffffffffffffffffffffffffffff168152602001828152602001945050505050602060405180830381600087803b15801561531857600080fd5b505af115801561532c573d6000803e3d6000fd5b505050506040513d602081101561534257600080fd5b8101908080519060200190929190505050915050919050565b600080600360009054906101000a900473ffffffffffffffffffffffffffffffffffffffff1673ffffffffffffffffffffffffffffffffffffffff1663809a9e55600860009054906101000a900473ffffffffffffffffffffffffffffffffffffffff16600a60009054906101000a900473ffffffffffffffffffffffffffffffffffffffff166006546040518463ffffffff167c0100000000000000000000000000000000000000000000000000000000028152600401808473ffffffffffffffffffffffffffffffffffffffff1673ffffffffffffffffffffffffffffffffffffffff1681526020018373ffffffffffffffffffffffffffffffffffffffff1673ffffffffffffffffffffffffffffffffffffffff1681526020018281526020019350505050604080518083038186803b15801561549a57600080fd5b505afa1580156154ae573d6000803e3d6000fd5b505050506040513d60408110156154c457600080fd5b8101908080519060200190929190805190602001909291905050505080915050600860009054906101000a900473ffffffffffffffffffffffffffffffffffffffff1673ffffffffffffffffffffffffffffffffffffffff1663095ea7b3600360009054906101000a900473ffffffffffffffffffffffffffffffffffffffff16856040518363ffffffff167c0100000000000000000000000000000000000000000000000000000000028152600401808373ffffffffffffffffffffffffffffffffffffffff1673ffffffffffffffffffffffffffffffffffffffff16815260200182815260200192505050602060405180830381600087803b1580156155cb57600080fd5b505af11580156155df573d6000803e3d6000fd5b505050506040513d60208110156155f557600080fd5b810190808051906020019092919050505050600360009054906101000a900473ffffffffffffffffffffffffffffffffffffffff1673ffffffffffffffffffffffffffffffffffffffff16637409e2eb600860009054906101000a900473ffffffffffffffffffffffffffffffffffffffff1685600a60009054906101000a900473ffffffffffffffffffffffffffffffffffffffff16856040518563ffffffff167c0100000000000000000000000000000000000000000000000000000000028152600401808573ffffffffffffffffffffffffffffffffffffffff1673ffffffffffffffffffffffffffffffffffffffff1681526020018481526020018373ffffffffffffffffffffffffffffffffffffffff1673ffffffffffffffffffffffffffffffffffffffff168152602001828152602001945050505050602060405180830381600087803b15801561574c57600080fd5b505af1158015615760573d6000803e3d6000fd5b505050506040513d602081101561577657600080fd5b8101908080519060200190929190505050915050919050565b600080600360009054906101000a900473ffffffffffffffffffffffffffffffffffffffff1673ffffffffffffffffffffffffffffffffffffffff1663809a9e55600960009054906101000a900473ffffffffffffffffffffffffffffffffffffffff16600a60009054906101000a900473ffffffffffffffffffffffffffffffffffffffff166006546040518463ffffffff167c0100000000000000000000000000000000000000000000000000000000028152600401808473ffffffffffffffffffffffffffffffffffffffff1673ffffffffffffffffffffffffffffffffffffffff1681526020018373ffffffffffffffffffffffffffffffffffffffff1673ffffffffffffffffffffffffffffffffffffffff1681526020018281526020019350505050604080518083038186803b1580156158ce57600080fd5b505afa1580156158e2573d6000803e3d6000fd5b505050506040513d60408110156158f857600080fd5b8101908080519060200190929190805190602001909291905050505080915050600960009054906101000a900473ffffffffffffffffffffffffffffffffffffffff1673ffffffffffffffffffffffffffffffffffffffff1663095ea7b3600360009054906101000a900473ffffffffffffffffffffffffffffffffffffffff16856040518363ffffffff167c0100000000000000000000000000000000000000000000000000000000028152600401808373ffffffffffffffffffffffffffffffffffffffff1673ffffffffffffffffffffffffffffffffffffffff16815260200182815260200192505050602060405180830381600087803b1580156159ff57600080fd5b505af1158015615a13573d6000803e3d6000fd5b505050506040513d6020811015615a2957600080fd5b810190808051906020019092919050505050600360009054906101000a900473ffffffffffffffffffffffffffffffffffffffff1673ffffffffffffffffffffffffffffffffffffffff16637409e2eb600960009054906101000a900473ffffffffffffffffffffffffffffffffffffffff1685600a60009054906101000a900473ffffffffffffffffffffffffffffffffffffffff16856040518563ffffffff167c0100000000000000000000000000000000000000000000000000000000028152600401808573ffffffffffffffffffffffffffffffffffffffff1673ffffffffffffffffffffffffffffffffffffffff1681526020018481526020018373ffffffffffffffffffffffffffffffffffffffff1673ffffffffffffffffffffffffffffffffffffffff168152602001828152602001945050505050602060405180830381600087803b158015615b8057600080fd5b505af1158015615b94573d6000803e3d6000fd5b505050506040513d6020811015615baa57600080fd5b810190808051906020019092919050505091505091905056fea165627a7a72305820fb3d2aff99b38c0895b130888a20ee73668efba0f40ea18dbbc343f0e78ded680029",
  "source": "pragma solidity ^0.5.0;\r\n\r\nimport \"./Migrations.sol\";\r\nimport \"@openzeppelin/contracts/token/ERC20/IERC20.sol\";\r\nimport \"@studydefi/money-legos/kyber/contracts/KyberNetworkProxy.sol\";\r\nimport \"@studydefi/money-legos/uniswap/contracts/IUniswapFactory.sol\";\r\nimport \"@studydefi/money-legos/uniswap/contracts/IUniswapExchange.sol\";\r\n\r\n\r\ncontract catalanExchange is Migrations{\r\n \r\n\tIUniswapFactory public uniswapFactory;\r\n\tKyberNetworkProxy public kyber;\r\n\tIUniswapExchange uniswapInterface1; //DAI\r\n\r\n\tuint256 deadline = 420;\r\n\tuint256 public unity = 1000000000000000000;\r\n\r\n\r\n\r\n\r\n\tIERC20 eth;\r\n\tIERC20 dai;\r\n\tIERC20 knc;\r\n\tIERC20 mana;\r\n\t\r\n\tconstructor(address _kncAddress, address _ethAddress, address _daiAddress, address _manaAddress, IUniswapFactory UniswapFactoryAddress, KyberNetworkProxy KyberNetworkProxyAddress) public{\r\n\t\teth = IERC20(_ethAddress);\r\n\t\tdai = IERC20(_daiAddress);\r\n\t\tknc = IERC20(_kncAddress);\r\n\t\tmana = IERC20(_manaAddress);\r\n\t\tuniswapFactory = IUniswapFactory(UniswapFactoryAddress);\r\n\t\tuniswapInterface1 = IUniswapExchange(uniswapFactory.getExchange(_daiAddress));\r\n\t\tkyber = KyberNetworkProxy(KyberNetworkProxyAddress);\r\n\t} \r\n\tfunction() external payable{}\r\n\r\n\t\r\n\r\n\tfunction transferRapid(uint256 _amount, uint256 _caso) external{\r\n\t\tuint256 x;\r\n\t\taddress payable clientPay = address(uint160(msg.sender));\r\n\r\n\t\tif(_caso == 1){//DAI - ETH\r\n\t\t\trequire(dai.balanceOf(msg.sender) >= _amount, \"Not Enought Tokens\");\r\n\t\t\tdai.transferFrom(msg.sender, address(this), _amount);\r\n\t\t\tx = buyDaiToEth2(_amount);\r\n\t\t\tclientPay.transfer(x);\r\n\t\t}\r\n\t\tif(_caso == 2){//KNC - ETH\r\n\t\t\trequire(knc.balanceOf(msg.sender) >= _amount, \"Not Enought Tokens\");\r\n\t\t\tknc.transferFrom(msg.sender, address(this), _amount);\r\n\t\t\tx = buyKncToEth2(_amount);\r\n\t\t\tclientPay.transfer(x);\r\n\t\t}\r\n\t\tif(_caso == 3){//MANA - ETH\r\n\t\t\trequire(mana.balanceOf(msg.sender) >= _amount, \"Not Enought Tokens\");\r\n\t\t\tmana.transferFrom(msg.sender, address(this), _amount);\r\n\t\t\tx = buyManaToEth2(_amount);\r\n\t\t\tclientPay.transfer(x);\r\n\t\t}\r\n\t\tif(_caso == 4){//DAI - KNC\r\n\t\t\trequire(dai.balanceOf(msg.sender) >= _amount, \"Not Enought Tokens\");\r\n\t\t\tdai.transferFrom(msg.sender, address(this), _amount);\r\n\t\t\tx = buyDaiToKnc2(_amount);\r\n\t\t\tknc.transfer(clientPay, x);\r\n\t\t}\r\n\t\tif(_caso == 5){//KNC - DAI\r\n\t\t\trequire(knc.balanceOf(msg.sender) >= _amount, \"Not Enought Tokens\");\r\n\t\t\tknc.transferFrom(msg.sender, address(this), _amount);\r\n\t\t\tx = buyKncToDai2(_amount);\r\n\t\t\tdai.transfer(clientPay, x);\r\n\t\t}\r\n\t\tif(_caso == 6){//MANA - KNC\r\n\t\t\trequire(mana.balanceOf(msg.sender) >= _amount, \"Not Enought Tokens\");\r\n\t\t\tmana.transferFrom(msg.sender, address(this), _amount);\r\n\t\t\tx = buyManaToKnc2(_amount);\r\n\t\t\tknc.transfer(clientPay, x);\r\n\t\t}\r\n\t\tif(_caso == 7){//MANA - DAI\r\n\t\t\trequire(mana.balanceOf(msg.sender) >= _amount, \"Not Enought Tokens\");\r\n\t\t\tmana.transferFrom(msg.sender, address(this), _amount);\r\n\t\t\tx = buyManaToDai2(_amount);\r\n\t\t\tdai.transfer(clientPay, x);\r\n\t\t}\r\n\t\tif(_caso == 8){//DAI - MANA\r\n\t\t\trequire(dai.balanceOf(msg.sender) >= _amount, \"Not Enought Tokens\");\r\n\t\t\tdai.transferFrom(msg.sender, address(this), _amount);\r\n\t\t\tx = buyDaiToMana2(_amount);\r\n\t\t\tmana.transfer(clientPay, x);\r\n\t\t}\r\n\t\tif(_caso == 9){//KNC - MANA\r\n\t\t\trequire(knc.balanceOf(msg.sender) >= _amount, \"Not Enought Tokens\");\r\n\t\t\tknc.transferFrom(msg.sender, address(this), _amount);\r\n\t\t\tx = buyKncToMana2(_amount);\r\n\t\t\tmana.transfer(clientPay, x);\r\n\t\t}\r\n\t}\r\n\r\n\t//Compra de cryptos ETH / DAI / WBTC\r\n\t//Kyber BUY (2)\r\n\tfunction buyDaiToEth2(uint256 _amount) internal returns(uint256 result){ \r\n\t\tuint256 x;\r\n\t\t(x, ) = kyber.getExpectedRate(dai, eth, unity);\r\n\t\tdai.approve(address(kyber), _amount);\r\n\t\treturn kyber.swapTokenToEther(dai, _amount, x);\r\n\t}\r\n\tfunction buyEthToDai2(uint256 _amount) external payable returns(uint256 result){\r\n\t\trequire (msg.value >= _amount, \"No dispone del Eth necesario\");\r\n\t\tuint256 x;\r\n\t\t(x , ) = kyber.getExpectedRate(eth, dai, unity);\r\n\t\tx = kyber.swapEtherToToken.value(_amount)(dai, x);\r\n\t\tdai.approve(msg.sender, x);\r\n\t\tdai.transferFrom(address(this), msg.sender, x);\t\r\n\t\treturn x;\r\n\t}\r\n\tfunction buyKncToEth2(uint256 _amount) internal returns(uint256 result){\r\n\t\tuint256 x;\r\n\t\t(x, ) = kyber.getExpectedRate(knc, eth, unity);\r\n\t\tknc.approve(address(kyber), _amount);\r\n\t\treturn kyber.swapTokenToEther(knc, _amount, x);\r\n\t}\r\n\tfunction buyEthToKnc2(uint256 _amount) external payable returns(uint256 result){\r\n\t\trequire (msg.value >= _amount, \"No dispone del Eth necesario\");\r\n\t\tuint256 x;\r\n\t\t(x , ) = kyber.getExpectedRate(eth, knc, unity);\r\n\t\tx = kyber.swapEtherToToken.value(_amount)(knc, x);\r\n\t\tknc.approve(msg.sender, x);\r\n\t\tknc.transfer(msg.sender, x);\t\r\n\t\treturn x;\r\n\t}\r\n\tfunction buyDaiToKnc2(uint256 _amount) internal returns(uint256 result){\r\n\t\tuint256 x;\r\n\t\t(x, ) = kyber.getExpectedRate(dai, knc, unity);\r\n\t\tdai.approve(address(kyber), _amount);\r\n\t\treturn kyber.swapTokenToToken(dai, _amount, knc, x);\r\n\t}\r\n\tfunction buyKncToDai2(uint256 _amount) internal returns(uint256 result){\r\n\t\tuint256 x;\r\n\t\t(x, ) = kyber.getExpectedRate(knc, dai, unity);\r\n\t\tknc.approve(address(kyber), _amount);\r\n\t\treturn kyber.swapTokenToToken(knc, _amount, dai, x);\r\n\r\n\t}\r\n\tfunction buyManaToEth2(uint256 _amount) internal returns(uint256 result){\r\n\t\tuint256 x;\r\n\t\t(x, ) = kyber.getExpectedRate(mana, eth, unity);\r\n\t\tmana.approve(address(kyber), _amount);\r\n\t\treturn kyber.swapTokenToEther(mana, _amount, x);\r\n\t}\r\n\tfunction buyManaToDai2(uint256 _amount) internal returns(uint256 result){\r\n\t\tuint256 x;\r\n\t\t(x, ) = kyber.getExpectedRate(mana, dai, unity);\r\n\t\tmana.approve(address(kyber), _amount);\r\n\t\treturn kyber.swapTokenToToken(mana, _amount, dai, x);\r\n\r\n\t}\r\n\tfunction buyManaToKnc2(uint256 _amount) internal returns(uint256 result){\r\n\t\tuint256 x;\r\n\t\t(x, ) = kyber.getExpectedRate(mana, knc, unity);\r\n\t\tmana.approve(address(kyber), _amount);\r\n\t\treturn kyber.swapTokenToToken(mana, _amount, knc, x);\r\n\t}\r\n\tfunction buyKncToMana2(uint256 _amount) internal returns(uint256 result){\r\n\t\tuint256 x;\r\n\t\t(x, ) = kyber.getExpectedRate(knc, mana, unity);\r\n\t\tknc.approve(address(kyber), _amount);\r\n\t\treturn kyber.swapTokenToToken(knc, _amount, mana, x);\r\n\t}\r\n\tfunction buyDaiToMana2(uint256 _amount) internal returns(uint256 result) {\r\n\t\tuint256 x;\r\n\t\t(x, ) = kyber.getExpectedRate(dai, mana, unity);\r\n\t\tdai.approve(address(kyber), _amount);\r\n\t\treturn kyber.swapTokenToToken(dai, _amount, mana, x);\r\n\t}\r\n\t\r\n\tfunction buyEthToMana2(uint256 _amount) external payable returns(uint256 result){\r\n\t\trequire (msg.value >= _amount, \"No dispone del Eth necesario\");\r\n\t\tuint256 x;\r\n\t\t(x , ) = kyber.getExpectedRate(eth, mana, unity);\r\n\t\tx = kyber.swapEtherToToken.value(_amount)(mana, x);\r\n\t\tmana.approve(msg.sender, x);\r\n\t\tmana.transfer(msg.sender, x);\t\r\n\t\treturn x;\r\n\t}\r\n\r\n\r\n\tfunction newOwner(address _newOwnerAddres) external onlyOwner{\r\n\t\tchangeOwner(_newOwnerAddres);\r\n\t}\r\n\t//Funciones para cambiar y consultar los parametros basicos\r\n\tfunction changeParameters(uint256 _deadline, uint256 _unity) external onlyOwner{\r\n\t\tdeadline = _deadline;\r\n\t\tunity = _unity;\r\n\t}\r\n\tfunction getParameters() external view returns(uint256 _deadline, uint256 _unity){\r\n\t\treturn(deadline, unity);\r\n\t}\r\n}\r\n",
  "sourcePath": "C:\\Users\\User\\Desktop\\Project\\catalanExchange\\Exchange\\contracts\\catalanExchange.sol",
  "compiler": {
    "name": "solc",
    "version": "0.5.0+commit.1d4f565a.Emscripten.clang"
  },
  "schemaVersion": "3.2.0",
  "updatedAt": "2020-07-27T12:01:42.772Z",
  "networkType": "ethereum",
  "devdoc": {
    "methods": {}
  },
  "userdoc": {
    "methods": {}
  }
}